:0413300000000000B9
:1012F5000121000226003C0231005A0222000002B0
:07130500240000C101C1003A
:0B126900C2A57F011210BC7F067E04AE
:10127400E4F53BF53CC3E53C9FE53B9E500A053C49
:09128400E53C70F1053B80ED2210
:10128D0030030FC2B77F047E00121274D2B77F2ACB
:10129D00800DC2B77F287E00121274D2B77F07125D
:0312AD0012742296
:100FE100C2B77F047E00121274D2B77F0612127448
:0E0FF100A2B7E433FD7C007F25121274AF0519
:010FFF0022CF
:0411F6008E518F5235
:1011FA00E4FBFAE55213920312128DE551A2E713AA
:10120A00F551E55213F5520BBB00010AEB64084A8B
:02121A0070E181
:01121C0022AF
:10121D00E4FBFAF582F583EAA2E713FAEB13FB126E
:10122D000FE1EF4E6003430380A3E582640845831D
:06123D0070E5AE02AF03F4
:011243002288
:1012D300C2B77F3B7E01121274D2B77F2E1E121249
:1012E30074A2B7E433FD7C007F0D0E1212741EAF9F
:0112F30005F5
:0112F40022D7
:1011A6007F337E001211F6E4F54CF54D12121D74D4
:1011B60033254DF8A607054DE54D7002054CC39441
:0711C60008E54C940040E530
:0111CD0022FF
:1012B0007F557E001211F6E4FDFC74332DF8E6FF35
:1012C0003395E0FE1211F60DBD00010CED64084CE3
:0212D00070E8C4
:0112D20022F9
:10131F007F447E001211F6D2B7D2B430B7FDC2B4FB
:01132F00229B
:1011CE007FBE7E001211F6E4F54FF55012121D741B
:1011DE00282550F8A6070550E5507002054FC39418
:0711EE0009E54F940040E504
:0111F50022D7
:020E5C00AC07E1
:100E5E00530501EC54016D5401FBC43333335480FC
:100E6E00FAEC5480FF3395E0A2E713EF135440429F
:100E7E0002EC5440A2E71354204202EC5420A2E7A5
:100E8E001354104202EC5410FF7804A2E713D8FB5F
:100E9E006B33333354084202EC5408FF7803A2E755
:100EAE0013D8FB6B25E025E054044202EC5404A257
:100EBE00E71354024202EC5402A2E7135401420219
:020ECE00AF0271
:010ED00022FF
:03111A00E4FFF9F6
:03111D00E4F54FA7
:10112000742829F8E6FEAD4FA805088003A2E7134E
:0A113000D8FB5401F550FD120E5CCF
:0B113A00054FC3E54F6480948840DB44
:0411450009B908D408
:011149002283
:03114A00E4FFF9C6
:03114D00E4F54C7A
:10115000743329F8E6FEAD4CA805088003A2E71316
:0A116000D8FB5401F54DFD120E5CA2
:0B116A00054CC3E54C6480948840DB1A
:0411750009B907D4D9
:011179002253
:10130D001212D31212B012131F1212D31212B002F4
:02131D0011CEEF
:10109300C2A57F801210BCD2A57F441210BC7F531F
:1010A3001210BC7F311210BC7F381210BC7F421269
:0910B30010BC7F321210BC7F302A
:1010BC008F807F037E00121274D2A7121274C2A703
:0B10CC001212747580007F1B0212746A
:060ED1002DF8E6540FFFAE
:100ED700E4FEEFC394015002E4FFEF70027E30BFDF
:100EE70001027E31BF02027E32BF03027E33BF049E
:100EF700027E34BF05027E35BF06027E36BF07027B
:100F07007E37BF08027E38BF09027E39BF0A027EDC
:100F170041BF0B027E42BF0C027E43BF0D027E44DF
:100F2700BF0E027E45BF0F027E46EFD3940F4002ED
:040F37007E3FAF0644
:010F3B002293
:1010D7007F307E751212747F381210BC7F1B7E0022
:1010E7001212747F381210BC7F1B7E001212747F9D
:1010F7000C1210BC7F227E001212747F011210BCEA
:101107007FFC7E031212747F061210BC7F227E00C2
:031117000212744D
:100F92001210937F2B1210BCC2A57FC01210BCD2BC
:100FA200A57F501210BC7F331210BC7F2E1210BCD2
:100FB2007F371210BC7F201210BC7F451210BC7FFD
:100FC200521210BC7F521210BCE4FDFC74FFFFFEF3
:0E0FD2001212740DBD00010CED640A4C70EE9D
:010FE00022EE
:100AB00012130D12111AEF6530600261DCE528781F
:100AC00004A2E713D8FB540FFFE5295407C454F0E0
:100AD0004FFBE528540FFAFF3395E0FE7C027D7151
:100AE0001208F67C007D6412095D8E4C8F4DEAFF82
:100AF0003395E0FE7C027D711208F67C007D641265
:100B0000095DEDD394324008054DE54D7002054C6A
:100B1000E5297804A2E713D8FB7022E52970047F49
:100B20000180027F00E52870047E0180027E00EED5
:100B30005F6005754E208019754E2B8014754E2D03
:100B4000C3747F9BFBC37464954DF54DE4954CF5E0
:100B50004C121269C2A57F801210BCD2A5AF4E12F2
:100B600010BCEB75F06484FFD394004006120ED7DE
:100B70001210BCEB75F06484E5F075F00A84FF1286
:100B80000ED71210BCEB75F06484E5F075F00A84A2
:100B9000AFF0120ED71210BC7F2E1210BCAE4CAFAD
:100BA0004D7C007D0A120908120ED71210BCEB759D
:100BB000F064847012AE4CAF4DFC7D0A120908AF90
:100BC00005120ED71210BC7FEF1210BC7F4312101B
:100BD000BCC2A57FC01210977F2B80361210937F66
:100BE0002B1210BCC2A57FC01210BCD2A57F43122D
:100BF00010BC7F521210BC7F431210BC7F20121019
:100C0000BC7F451210BC7F521210BC7F521210BC28
:050C10007F2E1210BC54
:010C150022BC
:10104B00121269C2A57F801210BCD2A5E4FDFCED83
:10105B0064044C7009C2A57FC01210BCD2A57433B6
:10106B002DF8E6FF7804A2E713D8FB540FFF120EFE
:10107B00D71210BC7433120ED11210BC0DBD00016F
:07108B000CED64084C70C875
:01109200223B
:1010000012130D121269C2A57F801210BCD2A5E482
:10101000FDFCED64044C7009C2A57FC01210BCD267
:10102000A574282DF8E6FF7804A2E713D8FB540F27
:10103000FF120ED71210BC7428120ED11210BC0D64
:0A104000BD00010CED64084C70C8FF
:01104A002283
:020C16008F4C01
:100C1800E4F550F54FF54EF54D7551037552E8F56D
:100C280053F55478557C00FD7BFF7A137930FE7FAD
:100C3800041208D0854CD8D2DCE5F570FCE5DA540E
:100C48000FFE3395E07550008E4FF54EF54DAFD938
:100C5800E4FCFDFEE5502FF550EE354FF54FED3530
:100C68004EF54EEC354DF54DE47F887E13AB50AA1A
:100C78004FA94EA84D120993E4FB7A10F9F8120A0D
:100C88001EE4AB07AA06F553F554AC51AD52AF03B9
:100C9800AE02120908AE5474552EF8A60774552EE4
:100CA800F8E6FF3395E0FEAC51AD521208F6C3EBFF
:100CB8009FFBEA9EFAAE51AF527C007D0A120908EA
:100CC8008E518F520554E554700205536404455300
:100CD80070B8121269C2A57F801210BCD2A57F41DC
:100CE8001210BC7F441210BC7F431210BC7F20122C
:100CF80010BCE54CB408097F541210BC7F2E800547
:100D0800AF4C120ED71210BCC2A57FC01210BCD2B5
:100D1800A5AF55120ED71210BC7F2E1210BCAF56BD
:100D2800120ED71210BCAF57120ED71210BCAF5804
:100D3800120ED71210BC7F201210BC7F560210BCB6
:10124400C3E521648094895005AF21020C16E52181
:1012540024F6600A14600A24027009020AB002101B
:051264000012104B22F6
:03000300020F3CAD
:100F3C00C0E0C0F0C083C082C0D075D000C000C07B
:100F4C0001C002C003C004C005C006C00720011BBD
:100F5C00758A00758C00D28CD2010521D3E52164F1
:100F6C0080948B4003752100121244D007D006D018
:100F7C0005D004D003D002D001D000D0D0D082D084
:060F8C0083D0F0D0E0323A
:03000B0002117A65
:10117A00C0E0C0D0C28DC3E5239527E5229526504D
:10118A000C0523E52370020522D28C800AC28C75D5
:0C119A002200752300C201D0D0D0E0324A
:100DD400E4F54AF54BC2A5C2A6C2A7F580D2AFD2AC
:100DE400B2D2A8D288D2B8D2A943890175EF8CD2E5
:100DF400B71210D71212D3EF30E005120F928029E8
:100E04001211A612114AEFB53A047F0180027F0045
:100E1400E533B428047E0180027E00EE5F600AC2DE
:100E2400B4D200752109121244054BE54B7002053A
:100E34004AB4E0F5E54AB410F0E4F54AF54B05256B
:100E4400E52570020524B532E0E524B531DBE4F58F
:080E540024F52512124480D19F
:03000000020D48A6
:0C0D4800787FE4F6D8FD758158020D8F0D
:10080000E709F608DFFA8046E709F208DFFA803EDA
:1008100088828C83E709F0A3DFFA8032E309F608C7
:10082000DFFA8078E309F208DFFA807088828C832F
:10083000E309F0A3DFFA806489828A83E0A3F608E3
:10084000DFFA805889828A83E0A3F208DFFA804CBD
:1008500080D280FA80C680D4806980F28033801094
:1008600080A680EA809A80A880DA80E280CA8033FD
:1008700089828A83ECFAE493A3C8C582C8CCC58375
:10088000CCF0A3C8C582C8CCC583CCDFE9DEE78045
:100890000D89828A83E493A3F608DFF9ECFAA9F0C4
:1008A000EDFB2289828A83ECFAE0A3C8C582C8CC1A
:1008B000C583CCF0A3C8C582C8CCC583CCDFEADE33
:1008C000E880DB89828A83E493A3F208DFF980CC95
:1008D00088F0EF60010E4E60C388F0ED2402B4048E
:1008E0000050B9F582EB2402B4040050AF23234535
:0608F00082239008507302
:1008F600EF8DF0A4A8F0CF8CF0A428CE8DF0A42E16
:02090600FE22CF
:10090800BC000BBE0029EF8DF084FFADF022E4CCD3
:10091800F875F008EF2FFFEE33FEEC33FCEE9DEC9C
:10092800984005FCEE9DFE0FD5F0E9E4CEFD22EDE2
:10093800F8F5F0EE8420D21CFEADF075F008EF2F2C
:10094800FFED33FD4007985006D5F0F222C398FD1D
:050958000FD5F0EA22BA
:10095D00C2D5EC30E709B2D5E4C39DFDE49CFCEEB5
:10096D0030E715B2D5E4C39FFFE49EFE120908C31C
:10097D00E49DFDE49CFC800312090830D507C3E417
:06098D009FFFE49EFE2224
:10099300E88FF0A4CC8BF0A42CFCE98EF0A42CFC03
:1009A3008AF0EDA42CFCEA8EF0A4CDA8F08BF0A481
:1009B3002DCC3825F0FDE98FF0A42CCD35F0FCEBE0
:1009C3008EF0A4FEA9F0EB8FF0A4CFC5F02ECD39A5
:0F09D300FEE43CFCEAA42DCE35F0FDE43CFC2212
:1009E20075F008758200EF2FFFEE33FECD33CDCCCC
:1009F20033CCC58233C5829BED9AEC99E58298404F
:100A02000CF582EE9BFEED9AFDEC99FC0FD5F0D62B
:100A1200E4CEFBE4CDFAE4CCF9A88222B800C1B955
:100A22000059BA002DEC8BF084CFCECDFCE5F0CB93
:100A3200F97818EF2FFFEE33FEED33FDEC33FCEBCC
:100A420033FB10D703994004EB99FB0FD8E5E4F987
:100A5200FA227818EF2FFFEE33FEED33FDEC33FC74
:100A6200C933C910D7059BE99A4007EC9BFCE99A68
:100A7200F90FD8E0E4C9FAE4CCFB2275F010EF2FAD
:100A8200FFEE33FEED33FDCC33CCC833C810D707AD
:100A92009BEC9AE899400AED9BFDEC9AFCE899F8E8
:0E0AA2000FD5F0DAE4CDFBE4CCFAE4C8F9227B
:100D5400020DD4E493A3F8E493A34003F68001F2D4
:100D640008DFF48029E493A3F85407240CC8C333A0
:100D7400C4540F4420C8834004F456800146F6DF6F
:100D8400E4800B01020408102040809012F5E47EF8
:100D9400019360BCA3FF543F30E509541FFEE49364
:100DA400A360010ECF54C025E060A840B8E493A32B
:100DB400FAE493A3F8E493A3C8C582C8CAC583CA56
:100DC400F0A3C8C582C8CAC583CADFE9DEE780BE0E
:01130C0000E0
:00000001FF
